:020000040800F2
:10000000180400209D010008C50E00084B0E0008D2
:10001000C10E000809020008A11500080000000038
:10002000000000000000000000000000C1100008F7
:10003000670D000800000000550F0008B50100081A
:10004000B7010008B7010008B7010008B7010008B0
:10005000B7010008B7010008B7010008B7010008A0
:10006000B7010008B7010008B7010008B701000890
:10007000B7010008B7010008B7010008B701000880
:10008000B7010008B7010008B701000881020008A5
:100090000D020008B7010008B7010008B701000809
:1000A000B701000819120008B7010008B7010008DD
:1000B000B7010008B7010008B7010008B701000840
:1000C000B7010008B7010008B7010008B701000830
:1000D000B7010008B7010008B7010008B701000820
:1000E000B7010008B7010008B7010008B701000810
:1000F000B7010008B7010008B7010008B701000800
:10010000B7010008B7010008B7010008B7010008EF
:10011000B7010008B7010008B7010008B7010008DF
:10012000B7010008B7010008B7010008B7010008CF
:10013000B7010008B7010008B7010008B7010008BF
:100140009D020008B7010008B7010008B7010008C8
:10015000B7010008B7010008B7010008B70100089F
:10016000B7010008B7010008B7010008B70100088F
:10017000B7010008B7010008B7010008B70100087F
:10018000B7010008B7010008DFF80CD000F02AF82A
:1001900000480047C315000818040020064880479F
:1001A00006480047FEE7FEE7FEE7FEE7FEE7FEE75C
:1001B000FEE7FEE7FEE7FEE7B1110008890100084F
:1001C00040EA01039B0703D009E008C9121F08C0D9
:1001D000042AFAD203E011F8013B00F8013B521E59
:1001E000F9D27047064C074D06E0E06840F0010385
:1001F00094E8070098471034AC42F6D3FFF7C8FFE5
:10020000DC150008FC15000800BFFEE700B585B04E
:100210000221184800F094FB48B30221154800F071
:1002200007FA6A460021134800F00CFD9DF808000B
:10023000E8B99DF80800D0B99DF80A00082816D141
:1002400040F201210098884211D10B480088401CDF
:100250000949088008460088B0F5FA7F07DB4FF4AB
:100260008041064800F0EDFD00200349088005B0FC
:1002700000BD0000006400400000002000140240A7
:1002800010B50121044800F05BFB18B101210248C0
:1002900000F0CEF910BD00000064004000B5A3B02E
:1002A0000221D74800F04CFB00287DD00221D44821
:1002B00000F0BEF91EAA0021D14800F0C3FC9DF851
:1002C0008000002870D19DF880000028FAD11E9887
:1002D000A0F20140052868D2DFE800F080FBF9F8C1
:1002E00003009DF883009DF8041060F305118DF85C
:1002F00004109DF8830001099DF8040061F3430098
:100300008DF804001EA8407BADF864001EA8807B19
:100310009DF8051060F304018DF805101EA8807B80
:1003200041099DF8050061F347108DF805001EA8EE
:10033000C07B9DF8041060F300018DF804104FF4A9
:100340000061B04800F07DFD9DF80400C0F342005C
:1003500005281DD2DFE800F003080D1217009FEDFD
:10036000AA0A8DED1A0A13E09FEDA80A8DED1A0A6C
:100370000EE09FEDA70A8DED1A0A09E09FEDA50A90
:100380008DED1A0A04E09FEDA40A8DED1A0A00BF54
:1003900000BF9DF80400C0F3011048B101280CD043
:1003A00002280FD0032801E028E125E114D10EE056
:1003B0009FED9A0A8DED1B0A0EE09FED990A8DEDD7
:1003C0001B0A09E09FED970A8DED1B0A04E09FEDE3
:1003D000960A8DED1B0A00BF00BF0EE19DF80400D8
:1003E00000F0010078B39DF8820006282CD19DF81A
:1003F00082200DF1830108A8FFF7E2FEBDF920007D
:1004000000EE100AB8EEC00ADFED880A20EE200ADE
:100410008DED0A0ABDF9220000EE100AB8EEC00AFE
:10042000DFED820A20EE200A8DED0B0ABDF92400D3
:1004300000EE100AB8EEC00ADFED7C0A20EE200ABA
:100440008DED0C0A41E0FFE79DF8040000F001008B
:10045000D8BB9DF88200082837D19DF882200DF185
:1004600083010DF10600FFF7ABFEBDF9060000EEBB
:10047000100AB8EEC00ADFED6D0A20EE200A8DEDFD
:10048000040ABDF9080000EE100AB8EEC00ADFED5C
:10049000670A20EE200A8DED050ABDF90A0000EE7C
:1004A000100AB8EEC00ADFED610A20EE200A8DEDD9
:1004B000060ABDF90C0000EE100AB8EEC00ADFED26
:1004C0005B0A20EE200A8DED070A96E073E041E01A
:1004D000FFE7DDF883000D90BDF88700ADF8380028
:1004E000BDF9340000EE100AB8EEC00ADDED1A0ABC
:1004F00020EE200A8DED120ABDF9360000EE100A3A
:10050000B8EEC00ADDED1A0A20EE200A8DED130ABE
:10051000BDF9380000EE100AB8EEC00ADDED1A0A87
:1005200020EE200A8DED140A1EA8407CC1001EA8F2
:10053000807C41EA6010ADF86200BDF86200B0F561
:10054000806F06DBBDF86200A0F5006080B2ADF8F8
:10055000620052E0DDF88300CDF83A00BDF8870074
:10056000ADF83E00BDF93A0000EE100AB8EEC00A40
:10057000DDED1B0A20EE200A8DED150ABDF93C00C9
:1005800000EE100AB8EEC00ADDED1B0A20EE200ACC
:100590008DED160ABDF93E0000EE100AB8EEC00A55
:1005A000DDED1B0A20EE200A8DED170ABDF889004B
:1005B000ADF8600021E0DDF883001090BDF8870001
:1005C000ADF844009DF883101EA8007B01EB0020CD
:1005D00000B2ADF870001EA8417B807B01EB0020CB
:1005E00000B2ADF872001EA8C17B007C01EB0020B8
:1005F00000B2ADF8740000E000BF00BF23B000BD42
:10060000006800400010024058A08B3A58A00B3AF6
:1006100058A08B3958A00B3958A08B38E7416B3A5A
:100620003333EB3A33336B3B3333EB3B17B7D138D0
:10063000B1F5007F3AD00FDC202928D006DC012953
:100640001CD004291DD0082940D11DE0402921D00B
:10065000B1F5807F3AD126E0B1F5004F31D006DC0C
:10066000B1F5806F25D0B1F5006F2FD124E0B1F541
:10067000803F12D0B1F5003F28D111E0154A8260C9
:1006800025E00822C26022E01022C2601FE008229A
:1006900002611CE01022026119E00822426016E0AB
:1006A0001022426013E00422426010E00422426003
:1006B0000DE0042242600AE00022826104224260CE
:1006C00005E0002282610422426000E000BF00BF1A
:1006D000704700000101010010B500F0EBF800F0D8
:1006E0008DFA00F051FA00F0A1F810BD10B50446E3
:1006F0000B48844209D10121480600F04DFC00213D
:100700004FF0007000F048FC08E00121880600F07E
:1007100043FC00214FF0806000F03EFC10BD000063
:100720000064004010B50021837A012202FA03F12F
:100730003D4A126842F001023B4B1A603A4A1C32B1
:1007400012688A43384B1C331A60027BCAB9364A96
:100750000C3212688A43344B0C331A604288C388C7
:1007600042EA0343304A4032847A42F83430028805
:10077000838842EA03432C4A4032847A02EBC40263
:100780005360027B012A19D1274A0C3212680A43AE
:10079000254B0C331A604288038842EA0343224AFD
:1007A0004032847A42F83430C288838842EA034374
:1007B0001D4A4032847A02EBC4025360C27A3AB9CD
:1007C000194A121D12688A43174B1B1D1A6006E056
:1007D000154A121D12680A43134B1B1D1A60028929
:1007E00032B9114A143212688A430F4B14331A601B
:1007F0000289012A06D10C4A143212680A430A4BB4
:1008000014331A60427B012A06D1074A1C3212684F
:100810000A43054B1C331A60034A126822F0010296
:10082000014B1A6010BD0000006600401FB500209B
:100830008DF80A008DF80B0001208DF80C000020C7
:10084000ADF80000ADF80200ADF80400ADF8060008
:10085000ADF8080001208DF80D006846FFF762FF33
:100860000E208DF80A0000208DF80B0001208DF875
:100870000C000020ADF80000ADF80200ADF8040057
:10088000ADF80600ADF8080001208DF80D006846AF
:10089000FFF748FF01220221044800F0E1F801229D
:1008A0000221034800F0DCF81FBD00000064004096
:1008B000006800401CB50121082000F04DFB01211B
:1008C000022000F049FB092201211B4800F094FAA4
:1008D00009220021184800F08FFA09220C2117483C
:1008E00000F08AFA09220D21144800F085FA03204D
:1008F000009002208DF804008DF8050000208DF88E
:10090000060001208DF8070069460B4800F02CFA1C
:100910004FF44050009002208DF804008DF805003F
:1009200000208DF8060001208DF807006946034875
:1009300000F01AFA1CBD0000000C02400004024046
:1009400070B504460D46002660692840002871D025
:10095000B5F5807F5CD010DC082D35D006DC012D8C
:1009600020D0022D24D0042D72D127E0102D31D0BB
:10097000202D35D0402D6BD138E0B5F5004F60D03B
:1009800009DCB5F5007F49D0B5F5806F4CD0B5F5E1
:10099000006F5DD14FE0B5F5803F2DD0B5F5003F3C
:1009A00056D12FE0A0682D4900F0D4F9064651E059
:1009B000E068032100F0CEF906464BE0E06808212C
:1009C00000F0C8F9064645E0E068102100F0C2F9E1
:1009D00006463FE02069032100F0BCF9064639E0F5
:1009E0002069082100F0B6F9064633E0206910219D
:1009F00000F0B0F906462DE06068082100F0AAF981
:100A0000064627E06068102100F0A4F9064621E0C0
:100A1000A069012100F09EF906461BE0A0690221B1
:100A200000F098F9064615E0A069042100F092F95B
:100A300006460FE00FE0A069702100F08BF9064632
:100A400008E06068042100F085F9064602E0FFE74F
:100A5000002600BF00E00026304670BD0101010005
:100A60001AB143690B43436102E043698B4343611D
:100A7000704730B5024600200023146824F00204B9
:100A80001460146844F00104146000E05B1C5468B6
:100A900004F001041CB94FF6FF74A342F6D1546868
:100AA00004F001040CB900206CE08C79012C04D115
:100AB000146844F08004146003E0146824F0800497
:100AC0001460CC79012C04D1146844F04004146003
:100AD00003E0146824F0400414600C7A012C04D163
:100AE000146844F02004146003E0146824F0200427
:100AF00014604C7A012C04D1146844F01004146082
:100B000003E0146824F0100414608C7A012C04D1E2
:100B1000146844F00804146003E0146824F0080426
:100B20001460CC7A012C04D1146844F004041460DD
:100B300003E0146824F0040414608C78A407CD78D2
:100B400044EA05640D7944EA05444D7944EA0554C4
:100B50000D886D1E2C43D461146824F001041460C8
:100B6000002300E05B1C546804F001041CB14FF644
:100B7000FF74A342F6D1546804F001040CB10020C4
:100B800000E0012030BD00000EB50121480600F054
:100B9000F3F90121880600F0EFF91648FFF7A6FDEA
:100BA0001548FFF7A3FD684600F0C4F800208DF853
:100BB000060001208DF8070000208DF808008DF850
:100BC00009008DF80A008DF80B008DF802008DF8F1
:100BD000030006208DF804008DF805000320ADF811
:100BE000000069460348FFF744FF69460248FFF7E3
:100BF00040FF0EBD006400400068004008B54FF49F
:100C0000C06000F09DF914208DF8000004208DF8DC
:100C1000010000208DF8020001208DF803006846D5
:100C200000F052F940208DF8000004208DF80100FA
:100C300000208DF8020001208DF80300684600F0C6
:100C400043F908BD10B500F5D87303EB01131B6819
:100C500003F004031372137A53B900F5D87303EB4E
:100C600001131B6840F2FF7404EA5353136009E058
:100C700000F5D87303EB01131B686FF0604404EABE
:100C8000D303536000F5D87303EB01131B6803F023
:100C90000203537200F5D87303EB01135B6803F092
:100CA0000F03937200F5D87303EB01135B681B0A03
:100CB000D37400F5D87303EB01139B68D37200F56E
:100CC000D87303EB01139B681C0A147300F5D873E7
:100CD00003EB01139B681C0C547300F5D87303EBF2
:100CE00001139B681B0E937300F5D87303EB01137C
:100CF000DB68D37300F5D87303EB0113DB681C0AC0
:100D0000147400F5D87303EB0113DB681C0C5474E6
:100D100000F5D87303EB0113DB681B0E937421B944
:100D2000C36843F02003C36003E0036943F020037A
:100D3000036110BD00218171C17101724172817224
:100D4000C1728170C17003210171022141710121C1
:100D5000018070470246002002EA01030BB1012026
:100D600000E0002070477047F0B50A4600210023DC
:100D7000002400BF3DE0012505FA01F3156805EAEE
:100D800003049C4234D105684F000326BE40B5439E
:100D9000056015794E00B540066835430560157944
:100DA000012D02D01579022D16D185684F0003263A
:100DB000BE40B543856055794E00B54086683543E1
:100DC0008560456801268E40B54345604568967943
:100DD0008E40B6B235434560C5684F000326BE401D
:100DE000B543C560D5794E00B540C6683543C5608A
:100DF000491C1029BFD3F0BDF0B5002300244D07D6
:100E0000ED0E02FA05F3CE1000F1200555F826503C
:100E10004E07F70E0F26BE40B543CF1000F1200657
:100E200046F82750CE1000F1200555F8265045EA27
:100E30000304CE1000F1200545F82640F0BD0183E3
:100E4000704742694A404261704700BFFEE70000B8
:100E50001CB50121102000F07FF84FF400600090D5
:100E600001208DF8040000208DF8060003208DF885
:100E7000050069461048FFF777FF0121202000F0A8
:100E80006BF84FF48040009001208DF804000020A2
:100E90008DF8060003208DF8050069460748FFF726
:100EA00063FF4FF480410548FFF7C9FF4FF400612D
:100EB0000148FFF7C4FF1CBD0010024000140240AF
:100EC00000BFFEE77047000070B5002100230F222D
:100ED000C4781CB3174C246804F4E064C4F5E064DF
:100EE000C4F30721C1F10404E3B20A4144789C40F1
:100EF000E1B28478144021430C07210E0E4C057892
:100F00006155047804F01F050124AC4005786D118B
:100F1000AD0005F1E025C5F8004109E0047804F0D2
:100F20001F050124AC40054D0678761145F8264092
:100F300070BD00000CED00E000E400E080E100E0A6
:100F400002490143024A1160704700000000FA059F
:100F50000CED00E07047000029B1064A1268024318
:100F6000044B1A6004E0034A12688243014B1A6082
:100F7000704700003038024029B1064A1268024327
:100F8000044B1A6004E0034A12688243014B1A6062
:100F9000704700004038024029B1064A12680243F7
:100FA000044B1A6004E0034A12688243014B1A6042
:100FB000704700002038024029B1064A12680243F7
:100FC000044B1A6004E0034A12688243014B1A6022
:100FD0007047000044380240F0B500210022002490
:100FE000022500260223324F3F6807F00C0121B191
:100FF000042905D0082937D105E02E4F076036E0D7
:101000002D4F076033E02A4F3F1F3F68C7F38056DC
:10101000274F3F1F3F6807F03F036EB1264FB7FBD6
:10102000F3F7DFF88CC0ACF1040CDCF800C0CCF3B3
:10103000881C07FB0CF40CE01E4FB7FBF3F7DFF83E
:1010400070C0ACF1040CDCF800C0CCF3881C07FBCA
:101050000CF4174F3F1F3F68C7F301477F1C7D000B
:10106000B4FBF5F7076002E0124F076000BF00BF56
:101070000F4F3F6807F0F0010909104F7A5C0768CD
:10108000D74047600A4F3F6807F4E051890A0B4F89
:101090007A5C4768D7408760054F3F6807F4604136
:1010A000490B064F7A5C4768D740C760F0BD000027
:1010B000083802400024F400001BB70004000020A0
:1010C000704700000CB50020019000903448006883
:1010D00040F480303249086000BF3148006800F4B5
:1010E000003000900198401C0190009818B90198B8
:1010F000B0F5A06FF1D12A48006800F4003010B1BB
:101100000120009001E0002000900098012846D1C5
:1011100023484030006840F0805021494031086049
:101120002048006840F480401E4908601C48083090
:1011300000681B49083108600846006840F4004018
:1011400008600846006840F4A05008601648091F6F
:101150000860081F006840F08070091F086000BF29
:101160000F48006800F000700028F9D040F20560D8
:101170000E4908600A480830006820F0030008495A
:10118000083108600846006840F00200086000BFAF
:1011900003480830006800F00C000828F8D10CBDA6
:1011A00000380240007000400C5A4008003C0240E9
:1011B00010B51548006840F47000134908601348E2
:1011C000006840F001001149086000200F49083113
:1011D00008600E4800680E4908400C4908600D4838
:1011E000091D0860081F006820F48020091F08609E
:1011F000002006490C310860FFF764FF4FF00060E3
:1012000001498039086010BD88ED00E000380240D7
:10121000FFFFF6FE1030002410B50121064800F053
:1012200021F840B14FF480410448FFF70AFE012144
:10123000014800F008F810BD000001400014024011
:10124000CA4302827047CA430282704721B10288B2
:1012500042F00102028004E002884FF6FE731A4059
:101260000280704730B50246002000230024158A12
:1012700005EA0103958905EA010413B10CB10120C7
:1012800000E0002030BD1AB183890B43838102E066
:1012900083898B43838170470EB501210846FFF790
:1012A0008BFE41F28730019044F24F60ADF80000B0
:1012B0000020ADF80800ADF8020001208DF80A000A
:1012C0006946084800F010F801210648FFF7B8FF0A
:1012D000012211460348FFF7D6FF01210148FFF71D
:1012E000B5FF0EBD0000014000220288184B984255
:1012F0000ED0184B98420BD0B0F1804F08D0164B4F
:10130000984205D0154B984202D0154B984204D113
:101310004FF68F731A404B881A43124B984207D0EE
:10132000114B984204D04FF6FF431A400B891A43E1
:1013300002804B68C3620B880385054B984202D03C
:10134000044B984201D18B7A038601238382704734
:10135000000001400004014000040040000800407B
:10136000000C0040001000400014004010B500F0D8
:1013700003F8FFF791FF10BD08B54FF4E060FFF7E9
:10138000DFFD19208DF8000000208DF801000320FA
:101390008DF8020001208DF803006846FFF794FDE8
:1013A00008BD000010B588B0044601214020FFF7B9
:1013B000D3FD01212020FFF7FFFD08220921244849
:1013C000FFF71AFD08220E212148FFF715FD4FF403
:1013D0008440069002208DF81C008DF81D0000202E
:1013E0008DF81E0001208DF81F0006A91848FFF790
:1013F000BBFC02940020ADF80C00ADF80E00ADF877
:101400001000ADF814000C20ADF8120002A911482C
:1014100000F05CF801210F4800F027F840210D484A
:1014200000F01AF8012240F225510A4800F029F88C
:1014300047208DF8040003208DF805008DF8060084
:1014400001208DF8070001A8FFF73EFD08B010BD90
:10145000001802400014014001F40072B2F5007F50
:1014600000D100BFCA430280704721B1828942F493
:101470000052828104E082894DF6FF731A40828116
:101480007047F0B50346002400260025002040F6F2
:101490006A17B94200D100BF1846C1F3421401F0E7
:1014A0001F06012707FA06F5012C01D10C3004E0D4
:1014B000022C01D1103000E014301AB107682F431C
:1014C000076002E00768AF430760F0BD2DE9FF4702
:1014D00005460E460024A14600BFA046B08900B1D3
:1014E00000BF2C8A24F44054F08804432C82AC8939
:1014F00041F20C608443B088318908437189084304
:101500000443AC81AC8A24F44074B0890443AC82B7
:101510006846FFF761FD2048854202D01F4885429A
:1015200002D1DDF80C9001E0DDF80890A88900F404
:10153000004040B109EBC90000EB091031684900D7
:10154000B0FBF1F707E009EBC90000EB09103168C7
:101550008900B0FBF1F76420B7FBF0F0040120092B
:10156000642101FB1078A88900F4004040B13220CA
:1015700000EBC800B0FBF1F000F00700044308E006
:10158000322000EB08106421B0FBF1F000F00F00F6
:1015900004432C81BDE8FF87001001400014014086
:1015A00000BFFEE702E008C8121F08C1002AFAD1F6
:1015B00070477047002001E001C1121F002AFBD1D3
:1015C0007047FFF745FC4FF4E130FFF7EBFEFFF704
:1015D00083F8FFF7CBFE00BFFEE70000FC15000814
:1015E0000000002014000000A415000810160008D8
:1015F0001400002004040000B415000800000000DE
:1016000000000000010203040102030406070809A8
:040000050800018965
:00000001FF
